:020000040800F2
:10000000381D00204501000815140008751300086C
:1000100011140008BD0D0008632200080000000054
:100020000000000000000000000000006B17000846
:100030001711000800000000FD1400087D190008D9
:100040005F0100085F0100085F0100085F01000810
:100050005F0100085F0100085F0100085F01000800
:100060005F0100085F0100085F0100085F010008F0
:100070005F0100085F0100085F0100085F010008E0
:100080005F0100085F0100085F0100085F010008D0
:100090005F0100085F0100085F0100085F010008C0
:1000A0005F0100085F0100085F0100085F010008B0
:1000B0005F0100081D1A0008ED1A00085F01000822
:1000C0005F0100085F0100085F0100085F01000890
:1000D0005F0100085F0100086D1D0008B11E0008E7
:1000E0005F0100085F0100085F0100085F01000870
:1000F0005F0100085F0100085F0100085F01000860
:100100005F0100085F0100085F0100085F0100084F
:100110005F0100085F0100085F0100085F0100083F
:100120005F0100085F0100085F0100085F0100082F
:10013000DFF80CD000F0D8FB004800472524000869
:10014000381D00200648804706480047FEE7FEE7C6
:10015000FEE7FEE7FEE7FEE7FEE7FEE7FEE7FEE777
:10016000BD19000831010008D2B201E000F8012BEE
:10017000491EFBD270470022F6E710B513460A4627
:1001800004461946FFF7F0FF204610BD421E12F844
:10019000013F002BFBD111F8013B02F8013B002B82
:1001A000F9D1704730B505462A460B4612F8010BC7
:1001B00013F8014B08B1A042F8D01CB1002802D0BE
:1001C0006D1CF1E7284630BD421C10F8011B0029C8
:1001D000FBD1801A7047034611F8012B00F8012B60
:1001E000002AF9D118467047F0B480EA0102D40F12
:1001F0004200B2EB410F02D20246084611464A00C5
:1002000042D0C30DDDB2C1F3C752AD1A202D35DA8D
:10021000C1F3160141F4000204B15242C5F12006B7
:1002200002FA06F12A411044B3EBD05F23D0C4B1E7
:10023000012DA0EBC35009DCF0BC4FF0004202EAF4
:10024000C352DBB200F5000000F0C3BA400000F179
:10025000807000EBC350A0F1807040EAD17049007B
:1002600009E0490841EAC071A0EBC35000F5000065
:10027000400800EBC350F0BC00F0A2BA614201227A
:1002800002EB4101001BF6E7F0BC704781F0004132
:10029000AAE780F00040A7E780EA010210B502F06B
:1002A0000043400022D04A001FD0010E01EB126132
:1002B000C0F35600C2F3560240F4000042F40002BC
:1002C000A0FB022000047F39140400D0401C50EA37
:1002D000124001D44000491EC2B20C0604EBD010FB
:1002E000401C4008802A02D003E0002010BD20F00E
:1002F0000100002900DA0020184310BD30B480EA64
:10030000010202F0004530F0004221F0004013D01D
:1003100090B1C30DD40DC2F31601C0F31600E41A58
:1003200041F4000140F400027D34914201D3641C89
:1003300000E04900002C02DA30BC002070474FF486
:1003400000000023914201D3891A034340084FEA79
:100350004101F7D151B1914202D14FF0004105E086
:1003600002D24FF0010101E06FF0010103EBC45034
:10037000284430BC00F024BA2DE9FE4F804681EAC3
:100380000300C00F0C46009021F0004123F000450F
:10039000B8EB0200A94105D24046214690461C46D2
:1003A0000B46024623F00040104347D0270DC7F309
:1003B0000A00C3F30A510290401A019040286BDAF8
:1003C000C3F3130040F4801B0098924620B1002331
:1003D000D2EB030A63EB0B0B01985946C0F14002C4
:1003E000504600F0CCF906460D4650465946019A53
:1003F00000F0D4F910EB08006141002487EA1152A3
:1004000084EAE7731A4340D0009A62B3019A012A42
:100410004FEA075215DC001B61EB02014FF000426E
:1004200002EA0752CDE90042001C41F58011324634
:100430002B4600F00BFA03B0BDE8F08F4046214692
:10044000F9E7001B61EB0201001C41F58013001865
:100450005B412018A2F5001747EB030140EAD57075
:10046000B6196D4111E06D084FEA360645EAC075D0
:100470004FEA0752001B61EB0201001C41F580119D
:1004800049084FEA30000019514132462B4603B06B
:10049000BDE8F04F00F0CBB90098012240000023E6
:1004A000D0EB020263EBE073009821464FEAE07460
:1004B000B8EB000061EB0401E9E783F000435BE780
:1004C00081F0004158E72DE9FE4F81EA030404F072
:1004D000004421F0004100944FF0000B23F0004352
:1004E00050EA01045ED052EA03045BD0C3F30A541D
:1004F000C1F30A552C44A4F2F3340194A0FB025436
:10050000C1F3130141F48011C3F3130343F48013C7
:1005100001FB024400FB034E840A970A44EA81541B
:1005200047EA8357A4FB076802958D0A05FB0785F8
:100530004FEA932C04FB0C542705029D4FEA065802
:1005400047EA1637B5EB08056EEB070C870E920EDF
:1005500047EA811742EA8312A7FB0201B6EB0B01BF
:1005600064EB00042B0D43EA0C335E1844EB1C5083
:10057000DA465146E7FB0201C5F313044FEA0B3399
:1005800043EA14534FEA0432019C43EA0603A4F100
:100590000C040294009CCDE900B400F057F903B0BC
:1005A000BDE8F08F00200146F9E72DE9F04D81EA22
:1005B000030404F0004B21F0004514464FF0000AFC
:1005C00023F0004150EA050220D054EA01021DD078
:1005D000C5F30A570246C5F31303C1F31300C1F371
:1005E0000A5640F4801543F48013A7EB0608101B4D
:1005F000D64608F2FD3873EB050002D308F1010876
:1006000001E092185B41B8F1000F03DA00200146C7
:10061000BDE8F08D00204FF48011064684460EE0C0
:10062000171B73EB050705D3121B63EB050306438A
:100630004CEA010C49084FEA300092185B4150EA3D
:100640000107EDD152EA030012D082EA040083EAE6
:100650000501084305D0101BAB4106D2012200233F
:1006600006E000224FF0004302E06FF00102531059
:100670001AEB06004CEB085110EB0A0041EB0B01A2
:10068000BDE8F04D00F0D3B8C10F80EAE070084437
:10069000CA079623002100F09CB896230022114639
:1006A00000F097B80EB5C10F80EAE0700844CA07A1
:1006B000002140F233438DE80E000A460B4600F05D
:1006C000C5F803B000BD00F0004220F00040C10DAD
:1006D000C0F3160040F400007F2901DA00207047C3
:1006E000962903DCC1F19601C84001E096398840A3
:1006F000002AF4D04042704720F00040C10DC0F302
:10070000160040F400007F2901DA00207047962986
:1007100003DCC1F19601C8407047963988407047A4
:1007200000F0004230F000400AD0C10D01F56071C8
:10073000C0F3160042EA0151C20840071143704756
:1007400000200146704701F0004330B421F0004121
:1007500050EA010206D00A0DA2F56072C1F313013E
:10076000002A02DC30BC00207047440F44EAC10478
:10077000C100E01830BC00EBC25000F021B8202AC4
:1007800004DB203A00FA02F1002070479140C2F1E8
:10079000200320FA03F3194390407047202A06DB18
:1007A000CB17203A41FA02F043EAE07306E041FA3F
:1007B00002F3D040C2F1200291400843194670472D
:1007C0000029A8BF7047401C490008BF20F0010065
:1007D000704710B4B0FA80FC00FA0CF050EA010443
:1007E00004BF10BC704749B1CCF1200421FA04F4D5
:1007F00011FA0CF118BF012121430843A3EB0C01AE
:10080000CB1D4FEA00614FEA102042BF002010BC10
:10081000704700EBC35010440029A4BF10BC7047C0
:10082000401C490008BF20F0010010BC704710B503
:10083000141E73F1000408DA401C41F10001921803
:100840005B411A4301D120F0010010BD2DE9F04DAC
:1008500092469B4611B1B1FA81F202E0B0FA80F201
:1008600020329046FFF78BFF04460F4640EA0A000D
:1008700041EA0B0153465A46084313D0114653EA46
:10088000010019D0C8F14002504600F03FF805467B
:100890000E46504659464246FFF771FF084305D0C1
:1008A000012004E020463946BDE8F08D00200543D4
:1008B00046EAE0762C4337430A986305E40AA0EB46
:1008C00008000022FD0A44EA47540A3002D50020FD
:1008D0000146E9E7010510196941DDE908450019FC
:1008E0006941BDE8F04DA2E7064C074D06E0E0681F
:1008F00040F0010394E8070098471034AC42F6D367
:10090000FFF71AFCB4280008D4280008202A04DBCA
:10091000203A21FA02F00021704721FA02F3D04078
:10092000C2F12002914008431946704710B540F6C5
:100930001D110B48FFF71FFC0AA10948FFF74BFCEC
:10094000042000F013FF4FF4FA6001F045FD074862
:10095000007818B100200549087010BD0120FCE79F
:10096000F806002041540D0A00000000A4000020F9
:1009700010B540F61D110C48FFF7FDFB0BA10A480E
:10098000FFF729FC0D2000F0F1FE40F6B83001F031
:1009900023FD0A48007828B100200849087008495A
:1009A000087010BD0120FCE7F806002041542B43DD
:1009B0004950434C4F53450D0A000000A40000204D
:1009C000A500002031B540F61D111148FFF7D3FBFB
:1009D00010A10F48FFF7FFFB69460D48FFF7D6FB54
:1009E0000FA10B48FFF7D2FB0948FFF7EDFB0446C8
:1009F000204600F0BBFE4FF4FA6001F0EDFC094820
:100A0000007818B100200749087038BD0120FCE7C4
:100A1000F806002041542B4349504D55583D0000E5
:100A20000D0A0000A40000202DE9F04104460E4606
:100A3000154640F61D112148FFF79DFB20A11F48D8
:100A4000FFF7C9FB022D03D120A11C48FFF79EFB35
:100A500031461A48FFF79AFB1DA11848FFF796FB8D
:100A60001648FFF7B1FB0746384600F07FFE4FF40B
:100A7000FA6001F0B1FC17480078E8B10020154990
:100A8000087040F61D110D48FFF775FB21460B4815
:100A9000FFF7A1FB0EA10948FFF778FB0748FFF716
:100AA00093FB0746384600F061FE4FF4FA6001F010
:100AB00093FC0020BDE8F0810120FBE7F806002050
:100AC00041542B43495053454E443D00302C0000C7
:100AD0000D0A0000A400002073B50C4640F61D115D
:100AE0001548FFF748FB15A11348FFF774FB69464B
:100AF0001148FFF74BFB15A10F48FFF747FB2146B5
:100B00000D48FFF743FB12A10B48FFF73FFB0A48D4
:100B1000FFF75AFB0546284600F028FE4FF4FA601E
:100B200001F05AFC0B48007818B100200949087000
:100B30007CBD0120FCE70000F806002041542B4357
:100B400049505345525645523D0000002C000000CC
:100B50000D0A0000A40000202DE9F04104460F46D4
:100B6000154640F61D112048FFF705FB1FA11E4842
:100B7000FFF731FB21461C48FFF708FB1FA11A486D
:100B8000FFF704FB39461848FFF700FB1CA1164885
:100B9000FFF7FCFA29461448FFF7F8FA19A11248A2
:100BA000FFF7F4FA1048FFF70FFB8046404600F0CD
:100BB000DDFD41F2707001F00FFC002604E04FF4FF
:100BC000FA6001F009FC761C422EF8D30E4800783A
:100BD00040B100200C49087001200C490870002029
:100BE000BDE8F0810120FBE7F806002041542B43CB
:100BF000495053544152543D22000000222C2200FF
:100C0000222C00000D0A0000A4000020A5000020F6
:100C100031B540F61D111148FFF7ADFA10A10F488C
:100C2000FFF7D9FA69460D48FFF7B0FA0FA10B4854
:100C3000FFF7ACFA0948FFF7C7FA0446204600F070
:100C400095FD4FF4FA6001F0C7FB0948007818B130
:100C500000200749087038BD0120FCE7F806002095
:100C600041542B43574D4F44453D00000D0A0000B1
:100C7000A400002010B540F61D110B48FFF77BFAC9
:100C80000AA10948FFF7A7FA0A2000F06FFD40F615
:100C9000B83001F0A1FB0848007818B100200649DF
:100CA000087010BD0120FCE7F806002041542B43DA
:100CB000575141500D0A0000A40000202DE9F047D3
:100CC0000446884615461E4640F61D112048FFF78B
:100CD00052FA20A11E48FFF77EFA21461C48FFF772
:100CE00055FA1FA11A48FFF751FA41461848FFF775
:100CF0004DFA1CA11648FFF749FA29461448FFF798
:100D000045FA19A11248FFF741FA31461048FFF79A
:100D10003DFA16A10E48FFF739FA0D48FFF754FACD
:100D20008146484600F022FD002704E04FF4FA60B7
:100D300001F052FB7F1C212FF8D30D48007820B121
:100D400000200B490870BDE8F0870120FBE7000098
:100D5000F806002041542B43575341503D220000D8
:100D6000222C2200222C00002C0000000D0A000082
:100D7000A400002010B540F61D110B48FFF7FBF949
:100D80000AA10948FFF727FA082000F0EFFC40F617
:100D9000B83001F021FB0848007818B1002006495E
:100DA000087010BD0120FCE7F806002041542B52CA
:100DB00053540D0A00000000A400002000BFFEE70D
:100DC00073B50446312C04D0322C11D0332C31D1E0
:100DD0001FE0012201A9184800F040FCBDF8040002
:100DE00000F0CAFA0546FFF79BFC144A03C221E053
:100DF000012201A91048801C00F030FCBDF804005D
:100E000000F0BAFA0546FFF78BFC0C4AC2E9020172
:100E100010E0012201A90848001D00F01FFCBDF8E8
:100E2000040000F0A9FA0546FFF77AFC034AC2E97C
:100E3000040100BF00BF7CBD08880108B00200208B
:100E40003A490A780978491C384B1970384988544E
:100E50000978552903D000211A461170704733498B
:100E600009780B2900DAF9E73149497850390A291C
:100E700056D2DFE801F0050D151D252D353D454DF8
:100E80002C492B4A921C13680B6052684A6047E059
:100E90002949274A921C13680B6052684A603FE058
:100EA0002649234A921C13680B6052684A6037E057
:100EB00023491F4A921C13680B6052684A602FE056
:100EC00020491B4A921C13680B6052684A6027E055
:100ED0001D49174A921C13680B6052684A601FE054
:100EE0001A49134A921C13680B6052684A6017E053
:100EF00017490F4A921C13680B6052684A600FE052
:100F000014490B4A921C13680B6052684A6007E050
:100F10001149074A921C13680B6052684A6000BF6F
:100F200000BF0021014A117000BF97E718000020A0
:100F3000B00100202C000020340000203C000020E4
:100F4000440000204C000020540000205C000020E1
:100F5000640000206C0000207400002070B51BA10C
:100F60001B48FFF71FF904466078412804D0422847
:100F700013D0432821D107E0A01C00F0C9FC85B2A2
:100F8000284601F007FA1FE0E01C00F0C1FC85B222
:100F9000A0782946FFF714FF16E0A078303840B15A
:100FA000E01C00F0B5FC0B490880012001F0A8F915
:100FB00002E0032001F0A4F906E05A200549088068
:100FC000032001F09DF900BF00BF70BD5300000079
:100FD000151000201600002000B58BB00121084636
:100FE00000F08EFA1B4800901B48019010200290E0
:100FF00040F61D10039000200490802005900020F2
:101000000690079008904FF48050099000200A90B5
:101010006946124800F05FF8114801904FF4005003
:1010200009900020029069460C48143000F053F8F3
:101030004FF4007000F016F8012208210748143020
:1010400000F040F801210548143000F019F80BB009
:1010500000BD000004480040F80600201C000240CB
:101060001510002000F0805111B10349086001E023
:10107000024948607047000004040240000002403A
:1010800021B1026842F00102026004E002684FF6FA
:10109000FE731A400260704701460020002201F0F2
:1010A000805313B1054B1A6801E0054B1A6802EA38
:1010B00001030BB1012000E0002070470004024052
:1010C000000002401AB103680B43036002E00368AA
:1010D0008B430360704710B50022026847F6F07337
:1010E0009A430C6A8B6823430C6923434C6923435E
:1010F0008C692343CC6923434C6A23438C6A234382
:101100001A430260CB6843600B6883604B68C3601E
:1011100010BD4160704770470020054908700549BF
:10112000087005490870054908700549087070473E
:10113000A4000020A5000020A6000020A700002099
:10114000A800002030B5044604254FF4302000F0FC
:101150006FF80546042D17D10C48006940F00200D5
:101160000A49086108464461006940F0400008618E
:101170004FF4302000F05CF805460448006941F661
:10118000FD71084001490861284630BD0020024039
:1011900004200B49C96801F0010109B101200EE0EA
:1011A0000749C96801F0040109B1022007E00449B8
:1011B000C96801F0100109B1032000E00420704764
:1011C000002002400348006940F0800001490861A6
:1011D000704700000020024070B504460D4604260A
:1011E000F00200F025F80646042E11D109480069E6
:1011F00040F00100074908612580F00200F018F86E
:1012000006460448006941F6FE710840014908613C
:10121000304670BD00200240024803494860034840
:10122000486070472301674500200240AB89EFCD3D
:1012300000B502460423FFF7ABFF034603E0FFF7C8
:10124000A7FF0346521E012B01D1002AF7D102B994
:101250000523184600BD2DE9F04102460025002671
:10126000002000230024002791F803C00CF00F0594
:1012700091F803C00CF0100CBCF1000F03D091F8F2
:1012800002C04CEA050591F800C0BCF1000F31D056
:10129000146800202BE04FF0010C0CFA00F3B1F8B9
:1012A00000C00CEA03069E4220D183004FF00F0CD1
:1012B0000CFA03F7BC4305FA03FC4CEA040491F86A
:1012C00003C0BCF1280F06D14FF0010C0CFA00FC52
:1012D000C2F814C00AE091F803C0BCF1480F05D170
:1012E0004FF0010C0CFA00FCC2F810C0401C08289A
:1012F000D1D31460B1F800C0BCF1FF0F34DD5468E5
:1013000000202EE000F1080C4FF0010808FA0CF361
:10131000B1F800C00CEA03069E4221D183004FF0D1
:101320000F0C0CFA03F7BC4305FA03FC4CEA040467
:1013300091F803C0BCF1280F05D100F1080C08FAA0
:101340000CF8C2F8148091F803C0BCF1480F07D123
:1013500000F1080C4FF0010808FA0CF8C2F81080F0
:10136000401C0828CED35460BDE8F081416170472D
:101370000161704700BFFEE72DE9FC470446DFF836
:101380004CA00A20B4FBF0F100FB1145641B0026C1
:101390000EE05046FFF7C4F907460D4A0D4BFFF724
:1013A00092F8CDE90001FFF7CEF98246701CC6B273
:1013B000AE42EEDB2046FFF770F907465146FEF7D6
:1013C0006BFF81464846BDE8FC870000CDCCCC3D94
:1013D0009A9999999999B93F08B50121102000F07F
:1013E000AFF84FF40050ADF8000010208DF8030066
:1013F00003208DF8020069460448FFF72CFF4FF4E4
:1014000000510248FFF7B4FF08BD00000010014082
:1014100000BFFEE77047000070B5002100230F22D7
:10142000C47804B3154C246804F4E064C4F5E064A3
:10143000210AC1F10403CA40447804FA03F1847814
:101440001440214309010E4C0678A155047804F09C
:101450001F050124AC4005786D11AD0005F1E025B4
:10146000C5F8004109E0047804F01F050124AC40F0
:10147000044D0678761145F8264070BD0CED00E06D
:1014800000E400E080E100E002490143024A11600B
:10149000704700000000FA050CED00E0FEB50446C0
:1014A0002046FFF7FFF8114AC2E90201104801681F
:1014B0001048FEF7EBFE0646FFF732F90B4A03C26F
:1014C0000A480D490290D1E90401CDE900010A481A
:1014D0000FC801F0D7F80549886AFFF7F4F805B29C
:1014E000601904B2204600F0CDFEFEBDC802002007
:1014F000A00000200000B442B002002070470000AD
:1015000029B1064A52690243044B5A6104E0034A76
:1015100052698243014B5A6170470000001002403B
:1015200029B1064AD2690243044BDA6104E0034A56
:10153000D2698243014BDA6170470000001002401B
:1015400029B1064A92690243044B9A6104E0034AB6
:1015500092698243014B9A6170470000001002407B
:1015600030B500210022002400232D4D6D6805F0C8
:101570000C0121B1042905D0082923D105E0294D0A
:10158000056022E0274D05601FE0254D6D6805F4DC
:101590007012234D6D6805F48034022505EB9242EC
:1015A0001CB9214D554305600BE01D4D6D6805F4D8
:1015B00000351DB11C4D5543056002E0194D5543E2
:1015C000056002E0174D056000BF00BF144D6D6857
:1015D00005F0F0010909154D6B5C0568DD404560BB
:1015E0000F4D6D6805F4E061090A104D6B5C4568AC
:1015F000DD4085600A4D6D6805F46051C90A0B4DE8
:101600006B5C4568DD40C560054D6D6805F4404183
:10161000890B074D6B5CC568B5FBF3F5056130BD03
:101620000010024000127A0000093D000000002076
:101630001000002030B503460C461546002207E096
:10164000184600F008F824F812009B1C501C82B2C7
:10165000AA42F5DB30BD0146088870472DE9F05FEE
:1016600080468A461746B8F1006F02D3334880455A
:1016700001D3BDE8F09FFFF7CFFDA8F1006B4FEA63
:101680009B25CBF34809C9F50074A74200DC3C4612
:101690004DE04FF0006101EB85208A142849FFF7E7
:1016A000C9FF00260BE009EB0600254931F81000C0
:1016B0004FF6FF71884200D003E0701C86B2A6424C
:1016C000F1DB00BFA6421BDA4FF0006101EB852081
:1016D000FFF738FD002608E03AF8160006EB09018E
:1016E000174A22F81100701C86B2A642F4DB4FF0B4
:1016F000006101EB85208A14114900F023F804E011
:1017000022465146404600F01DF8A74200D10FE0A6
:101710006D1C4FF000090AEB440AA044381B87B245
:10172000B7F5007F02DD4FF4007400E03C46B0E7FF
:1017300000BFFFF747FD00BF9BE700000000020865
:10174000F80200202DE9F04105460E461746002418
:1017500007E036F814102846FFF73EFDAD1C601C6C
:1017600084B2BC42F5DBBDE8F081704710B5044699
:1017700000210A48FFF784FCA1B20848FFF7C9FC22
:1017800001210648FFF77CFC00BF2020FFF784FC06
:101790000128FAD12020FFF765FC10BD1C00024093
:1017A00010B500F001F810BD0CB5002001900090BC
:1017B0003348006840F480303149086000BF304849
:1017C000006800F4003000900198401C01900098DF
:1017D00018B90198B0F5A06FF1D12948006800F45C
:1017E000003010B10120009001E00020009000982E
:1017F000012843D12348006840F0100021490860C7
:101800000846006820F0030008600846006840F0C1
:10181000020008601A484068194948600846406854
:1018200048600846406840F4806048600846406868
:1018300020F47C1048600846406840F4E810486096
:101840000846006840F08070086000BF0C480068DF
:1018500000F000700028F9D00948406820F003002B
:10186000074948600846406840F00200486000BFF1
:101870000348406800F00C000828F9D10CBD0000B6
:10188000001002400020024010B500BFFFF74EF8E4
:101890000028FBD100BF3120FFF7BAF90028FAD1A8
:1018A000012005490870FFF765FA00BFFFF73EF811
:1018B0000028FBD110BD0000A80000202DE9F04158
:1018C00004460D4616464FF0010CF01A471C002145
:1018D0001AE0605C95F80080404514D1002209E0D0
:1018E0005018205C15F80280404502D04FF0000CE3
:1018F00002E0521C9A42F3D300BFBCF1000F02D0A9
:101900000120BDE8F081491CB942E2D30020F8E78C
:101910002DE9F04105462846FEF756FC00F0FF0889
:1019200001260027A8F10100285C45280FD1A8F165
:101930000100C4B209E0601E285C303800FB067765
:1019400006EB86004600601EC4B2002CF3DC38466D
:10195000BDE8F081042808D14FF0E021096941F089
:1019600004014FF0E022116107E04FF0E021096926
:1019700021F004014FF0E022116170477047000030
:1019800010B504466FF00400FFF7E4FFE11704EB25
:101990005171C1F3C701074A11701046007800EB7E
:1019A0004001C1EBC0104FF6FF7101EAC0000249CF
:1019B000088010BDAA000020AC00002010B513481C
:1019C000006840F00100114908600846406810496D
:1019D00008400E494860084600680E4908400B4917
:1019E00008600846006820F48020086008464068C7
:1019F00020F4FE0048604FF41F008860FFF7D0FE1F
:101A00004FF000600449086010BD00000010024063
:101A10000000FFF8FFFFF6FE08ED00E00EB5012123
:101A20002C4800F0CEF800284FD02B48007830BB6F
:101A30000021284800F0B9F828480088ADF80400D3
:101A400027480088ADF800000020ADF80600ADF88A
:101A5000020069461F4800F0CFF801211D4800F040
:101A6000A4F84FF480511F48FFF782FC4FF4005157
:101A70001C48FFF77DFC01201749087025E0002174
:101A8000144800F092F818480088ADF80400144893
:101A90000088ADF800000020ADF80600ADF80200A7
:101AA00069460C4800F0A8F801210A4800F07DF8CA
:101AB0004FF480510B48FFF759FC4FF4005109488F
:101AC000FFF754FC0020044908700121014800F090
:101AD00069F80EBD0004004028000020220000200C
:101AE00026000020000C0140240000200EB501213A
:101AF000264800F066F8002843D02548007800BB4F
:101B00000021224800F051F822480088ADF8040076
:101B100021480088ADF800000020ADF80600ADF8BF
:101B200002006946194800F067F80121174800F0E3
:101B30003CF802211948FFF71BFC012014490870EA
:101B40001FE00021114800F030F815480088ADF87A
:101B5000040011480088ADF800000020ADF8060030
:101B6000ADF802006946094800F046F8012107482F
:101B700000F01BF802210948FFF7F8FB0020044998
:101B800008700121014800F00DF80EBD000800406A
:101B9000200000201A0000201E000020000C014040
:101BA0001C000020CA430282704721B1028842F023
:101BB0000102028004E002884FF6FE731A400280A0
:101BC000704730B50246002000230024158A05EA3C
:101BD0000103958905EA010413B10CB1012000E06D
:101BE000002030BD1AB183890B43838102E08389D1
:101BF0008B43838170470000002202881D4B98426E
:101C00000ED01D4B98420BD0B0F1804F08D01B4B2B
:101C1000984205D01A4B984202D01A4B984204D1F0
:101C20004FF68F731A404B881A43174B984207D0D0
:101C3000164B984204D04FF6FF431A40CB881A4304
:101C400002808B8883850B8803850A4B98420BD0D2
:101C5000094B984208D00E4B984205D00D4B984244
:101C600002D00D4B984201D10B7A03860123838267
:101C700070470000002C0140003401400004004087
:101C800000080040000C004000100040001400401C
:101C900000400140004401400048014010B5FEF7FB
:101CA00067FE002013490870FEF7E4FF0120124987
:101CB00008703220FEF7ACFF022010490870FFF7D1
:101CC00059F800BFFEF732FE0028FBD10CA30DA28D
:101CD0000DA10FA0FEF7F2FF3120FEF773FE0EA15B
:101CE0003120FEF7F9FE01200D4908700149087006
:101CF00010BD0000A5000020A6000020A8000020C4
:101D00003000000031310000313233340000000077
:101D1000455350383236360031303530300000000F
:101D2000A700002010B50446074801780078401C41
:101D3000054A107005484454012240F227710448B6
:101D400000F0F4F910BD000015000020B0000020E4
:101D50000044004010B5044603E02078FFF7E2FF9E
:101D6000641C20780028F8D110BD000010B540F2A6
:101D700027711E4800F0B0F908B31D4802780078BA
:101D8000401C1B4B18701B48815C184800F065FA1A
:101D900040F22771154800F06EF915480078164991
:101DA000097888421CD10020114908701249087036
:101DB000002240F227710D4800F0B8F910E040F21F
:101DC00025510A4800F088F950B10849091D0988D1
:101DD000C8B2FFF735F840F22551044800F04BF93E
:101DE0004FF45871014800F046F910BD004400401E
:101DF00014000020B00000201500002010B586B0AF
:101E0000044601210420FFF79BFB01214804FFF752
:101E100087FB01210846FFF793FB0420ADF814006F
:101E200003208DF8160018208DF8170005A91E480C
:101E3000FFF711FA0820ADF8140004208DF8170000
:101E400005A91948FFF707FA01940020ADF808002A
:101E5000ADF80A00ADF80C00ADF810000C20ADF89C
:101E60000E0001A9114800F087F901210F4800F088
:101E700011F940210D4800F0F5F8012240F22551FA
:101E80000A4800F053F926208DF8000003208DF851
:101E9000010002208DF8020001208DF80300684641
:101EA000FFF7BAFA06B010BD000801400044004038
:101EB00010B51021284800F002F9002843D0002175
:101EC0002648FFF7DDF84FF40070FFF7CBF840F637
:101ED0001D1022493039486321A12248FEF762F9DA
:101EE00010B101202049087020A11E48FEF75AF9C0
:101EF00030B90B2317221FA11A48FFF7DFFC10B1DE
:101F000000201F4908701FA11648FEF74BF910B1B9
:101F100001201D4908701DA11248FEF743F910B1B8
:101F20000120174908701CA10E48FEF73BF908B1C3
:101F3000FFF714F840F61D110A48FEF71CF90121BD
:101F40000648FFF79DF8044800F082F91021024886
:101F500000F088F810BD000000480040300002404A
:101F60004F4B000015100020A4000020434C4F539D
:101F7000454400005749464920474F5420495000E6
:101F8000A500002043555400A6000020302C434FEC
:101F90004E4E4543540000002B49504400000000C1
:101FA00010B586B0044601210820FFF7C9FA0121C7
:101FB0008804FFF7B5FA01210846FFF7C1FA4FF48C
:101FC0008060ADF8140003208DF8160018208DF8FD
:101FD000170005A92148FFF73EF94FF40060ADF85E
:101FE000140004208DF8170005A91C48FFF733F9E9
:101FF00001940020ADF80800ADF80A00ADF80C001F
:10200000ADF810000C20ADF80E0001A9144800F046
:10201000B3F8012240F22441114800F087F8012270
:10202000C0210F4800F042F827208DF80000012061
:102030008DF8010003208DF8020001208DF80300C7
:102040006846FFF7E9F94021054800F00BF8012147
:10205000034800F01FF806B010BD0000000C01405E
:102060000048004001F40072B2F5007F00D100BFCB
:10207000CA430280704710B50022002340F66A145C
:10208000A14200D100BF0A1201249440A3B2DC4354
:10209000048010BD21B1828942F40052828104E0A3
:1020A00082894DF6FF731A40828170471AB1838A84
:1020B0000B43838202E0838A8B438382704702460C
:1020C0000020B1F5007F00D100BF13880B400BB199
:1020D000012000E00020704770B502460024002374
:1020E0000025002040F66A16B14200D100BFC1F3BE
:1020F000421501F01F03012606FA03F3012D02D158
:102100009689334006E0022D02D1168A334001E061
:10211000968A33400C12012606FA04F416883440DD
:1021200013B10CB1012000E0002070BDF0B50346F2
:10213000002400260025002040F66A17B94200D18D
:1021400000BF1846C1F3421401F01F06012707FA29
:1021500006F5012C01D10C3004E0022C01D1103025
:1021600000E014301AB107682F43076002E00768E7
:10217000AF430760F0BD00002DE9F04786B005468B
:102180000E460024A24600BFA1460027B08900B138
:1021900000BF2F462C8A4CF6FF700440F0880443A1
:1021A0002C82AC894EF6F3100440B0883189084384
:1021B000718908430443AC81AC8A4FF6FF40044068
:1021C000B0890443AC8201A8FFF7CAF91F488742CF
:1021D00002D1DDF810A001E0DDF80CA0A88900F420
:1021E000004040B10AEBCA0000EB0A103168490018
:1021F000B0FBF1F807E00AEBCA0000EB0A10316807
:102200008900B0FBF1F86420B8FBF0F0040120096C
:10221000642101FB1089A88900F4004040B13220FC
:1022200000EBC900B0FBF1F000F00700044308E048
:10223000322000EB09106421B0FBF1F000F00F0038
:1022400004432C8106B0BDE8F0870000003801404F
:1022500001468888C0F308007047C1F308028280F5
:10226000704700BFFEE702E008C8121F08C1002A3D
:10227000FAD170477047002001E001C1121F002A07
:10228000FBD170472DE9F0470446692C01DD692434
:1022900002E04B2C00DA4B2423201349088020460F
:1022A000FEF7F2F98246FEF73BFA074600220F4B93
:1022B000FEF77BF90546FEF746FA81460C4948468B
:1022C000FDF7EAFF06460B49FDF78EFF0546FEF7D0
:1022D00013FA094908800846008849F64041081A5F
:1022E00006490880BDE8F0871E000020000022405B
:1022F0000000484300007A441A0000201C0000201F
:1023000010B50446002C41D0012C02D0022C28D15B
:1023100013E080211E48FFF729F84FF480711C4814
:10232000FFF726F84FF480411948FFF71FF84FF4E4
:1023300000411748FFF71CF827E04FF4807114485C
:10234000FFF714F880211248FFF712F84FF400410C
:102350000F48FFF70BF84FF480410D48FFF708F8DE
:1023600013E04FF480710A48FFF700F88021084815
:10237000FEF7FCFF4FF400410548FEF7F7FF4FF46E
:1023800080410348FEF7F2FF00BF00BF10BD000010
:10239000000C014010B50446B42C01DDB42402E069
:1023A000142C00DA142409480480C4F1C800084938
:1023B0000880012205490748FFF750F90122044926
:1023C0000448801CFFF74AF910BD000022000020DD
:1023D00024000020048801080146114A12884A435B
:1023E0004FF0E0235A6100229A611A46126942F0C6
:1023F00001021A6100BF4FF0E022106900F00102F3
:102400001AB100F48032002AF5D04FF0E0221269B0
:1024100022F001024FF0E0231A6100229A61704716
:10242000AC000020012501264820FFF7A9FA4FF44F
:10243000A060FFF729F800F087F900F0B1F800F08C
:10244000E7F9FEF7C9FF4FF41650FFF7D7FC4FF43A
:102450007A70FFF7C1FF3848FFF77CFC0A20FFF7CE
:10246000BBFF3648FFF776FC6420FFF7B5FF344822
:10247000FFF770FC6420FFF7AFFF3248FFF76AFCFC
:102480006420FFF7A9FFFEF7A7FD4FF4E130FFF747
:1024900087FDFEF741FEFFF7F7F94BE0C820FFF795
:1024A0009BFF601C84B2B4F5FA7F0CDD0024264843
:1024B000FFF750FC6420FFF78FFF2448FFF74AFC2A
:1024C0006420FFF789FF2249B1F90400FEF7DCF828
:1024D00080464FF08E41FDF711FF07461D49FDF77D
:1024E000DBFE1D4908601D48008800B2FEF7D6FFDC
:1024F000052094FBF0F100FB1140D8B91848007892
:1025000010B11848007888B11748007828B917A288
:1025100018A11CA0FEF720FB0CE05EB11A4802785F
:102520001AA11BA0FEF780FA002603E015B1FFF701
:10253000B5FB0025B2E700009800002086000020CF
:102540008C000020920000207C00002081000020F0
:102550004400002000003443A000002016000020AA
:10256000A6000020A7000020A5000020323333334E
:10257000330000003139322E3136382E3133372EC8
:102580003100000054435000A80000203132000008
:102590005443502D4275696C64656421000000004D
:1025A00000B585B001210820FEF7CAFF4FF2801068
:1025B000ADF8100010208DF8130003208DF81200E4
:1025C00004A92848FEF747FE4FF280112548FEF780
:1025D000CDFE00202449087041F61F4023490880A1
:1025E000012223492348FFF725F8012222492148E7
:1025F000801CFFF71FF800202049087001210220ED
:10260000FEF78EFF1C480088ADF8080017480088C8
:10261000ADF804000020ADF80A00ADF8060001A9ED
:102620001748FFF7E9FA012211461548FFF7DAFAD1
:1026300001211348FFF7B6FA1D208DF80000022093
:102640008DF8010003208DF8020001208DF80300B1
:102650006846FEF7E1FE01210948FFF7A6FA05B03A
:1026600000BD0000000C01402800002026000020D2
:1026700022000020048801082400002029000020F6
:10268000000400400FB42DE9F0478CB0DDF86880FD
:10269000D8E900934A46D8E902613046FDF70DFFBC
:1026A00004460D46D8E90663324620462946FDF722
:1026B00004FF8146D8E904633246FDF776FFCDE991
:1026C0000A01D8E90463324620462946FDF7FBFE9D
:1026D0008146D8E908633246FDF74EFEC8E9080195
:1026E000DDE918613046DDE90A23FDF7ECFECDE9AE
:1026F0000601D8E908633246DDE916914846FDF740
:10270000E2FECDE9020122462B46DDE914613046A6
:10271000FDF7D9FECDE90001DDE90223FDF72CFE2E
:10272000CDE90401DDE90623FDF726FECDE9080128
:10273000FEF709F8C8F82800C8E9064540460CB07D
:10274000BDE8F0075DF814FB00B585B00121082055
:10275000FEF7F6FE0220ADF8100010208DF81300F1
:1027600003208DF8120004A92348FEF774FD02210E
:102770002148FEF7FBFD0020204908702320204956
:10278000088040F6B8301F49088049F288001E4989
:10279000088001210420FEF7C3FE1B480088ADF825
:1027A000080017480088ADF804000020ADF80A00C2
:1027B000ADF8060001A91548FFF71EFA01221146DF
:1027C0001248FFF70FFA01211048FFF7EBF91E201E
:1027D0008DF8000001208DF8010002208DF8020024
:1027E00001208DF803006846FEF716FE0121074818
:1027F000FFF7DBF905B000BD000C01402000002010
:102800001E0000201A0000201C00002000080040CC
:1028100038B5214801682148FDF738FD0446FDF729
:102820007FFF1F4A03C200211E48083AC2E9021076
:102830001D48C2E904109161D1611162516200200A
:1028400011468862012269461848FEF7F3FEBDF87A
:102850000000FEF791FD0446FDF762FF144A03C233
:10286000012269461148801CFEF7E4FEBDF8000015
:10287000FEF782FD0446FDF753FF0D4AC2E902014F
:10288000012269460948001DFEF7D4FE0021084ACE
:102890001161516138BD0000A00000200000B44269
:1028A000C8020020008056400000F03F0888010860
:1028B000B0020020D428000800000020B000000072
:1028C0006622000884290008B0000020881C00004F
:1028D0007622000800000000010203040102030444
:1028E000060708090204060800005A00000000005C
:1028F00000000000000000000000000000000000D8
:1029000000000000000000000000000000000000C7
:1029100000000000000000000000000000000000B7
:1029200000000000000000000000000000000000A7
:102930000000000000000000000000000000000097
:102940000000000000000000000000000000000087
:10295000FFAA010100FFAA000000FFAA2401000055
:10296000FFAA63000000FFAA01040000FFAA698813
:10297000B5000000000000000000000000000000A2
:042980000000000053
:0400000508000131BD
:00000001FF
