:020000040800F2
:10000000F80B002045010008090F0008C90E000880
:10001000050F000895090008E31A00080000000019
:100020000000000000000000000000003F12000877
:10003000950C000800000000F10F000851130008A3
:100040005F0100085F0100085F0100085F01000810
:100050005F0100085F0100085F0100085F01000800
:100060005F0100085F0100085F0100085F010008F0
:100070005F0100085F0100085F0100085F010008E0
:100080005F0100085F0100085F0100085F010008D0
:100090005F0100085F0100085F0100085F010008C0
:1000A0005F0100085F0100085F0100085F010008B0
:1000B000F1130008F5130008C51400085F010008DB
:1000C0005F0100085F0100085F0100085F01000890
:1000D0005F010008C1160008B51700085F0100089D
:1000E0005F0100085F0100085F0100085F01000870
:1000F0005F0100085F0100085F0100085F01000860
:100100005F0100085F0100085F0100085F0100084F
:100110005F0100085F0100085F0100085F0100083F
:100120005F0100085F0100085F0100085F0100082F
:10013000DFF80CD000F00CFC00480047D125000887
:10014000F80B00200648804706480047FEE7FEE718
:10015000FEE7FEE7FEE7FEE7FEE7FEE7FEE7FEE777
:100160009113000831010008F0B480EA0102D40FB5
:100170004200B2EB410F02D20246084611464A0045
:1001800042D0C30DDDB2C1F3C752AD1A202D35DA0E
:10019000C1F3160141F4000204B15242C5F1200638
:1001A00002FA06F12A411044B3EBD05F23D0C4B168
:1001B000012DA0EBC35009DCF0BC4FF0004202EA75
:1001C000C352DBB200F5000000F006BB400000F1B6
:1001D000807000EBC350A0F1807040EAD1704900FC
:1001E00009E0490841EAC071A0EBC35000F50000E6
:1001F000400800EBC350F0BC00F0E5BA61420122B8
:1002000002EB4101001BF6E7F0BC704781F00041B2
:10021000AAE780F00040A7E780EA010210B502F0EB
:100220000043400022D04A001FD0010E01EB1261B2
:10023000C0F35600C2F3560240F4000042F400023C
:10024000A0FB022000047F39140400D0401C50EAB7
:10025000124001D44000491EC2B20C0604EBD0107B
:10026000401C4008802A02D003E0002010BD20F08E
:100270000100002900DA0020184310BD30B480EAE4
:10028000010202F0004530F0004221F0004013D09E
:1002900090B1C30DD40DC2F31601C0F31600E41AD9
:1002A00041F4000140F400027D34914201D3641C0A
:1002B00000E04900002C02DA30BC002070474FF407
:1002C00000000023914201D3891A034340084FEAFA
:1002D0004101F7D151B1914202D14FF0004105E007
:1002E00002D24FF0010101E06FF0010103EBC450B5
:1002F000284430BC00F067BA2DE9FE4F804681EA01
:100300000300C00F0C46009021F0004123F000458F
:10031000B8EB0200A94105D24046214690461C4652
:100320000B46024623F00040104347D0270DC7F389
:100330000A00C3F30A510290401A019040286BDA78
:10034000C3F3130040F4801B0098924620B10023B1
:10035000D2EB030A63EB0B0B01985946C0F1400244
:10036000504600F00FFA06460D4650465946019A8F
:1003700000F017FA10EB08006141002487EA1152DF
:1003800084EAE7731A4340D0009A62B3019A012AC3
:100390004FEA075215DC001B61EB02014FF00042EF
:1003A00002EA0752CDE90042001C41F580113246B5
:1003B0002B4600F04EFA03B0BDE8F08F40462146D0
:1003C000F9E7001B61EB0201001C41F580130018E6
:1003D0005B412018A2F5001747EB030140EAD570F6
:1003E000B6196D4111E06D084FEA360645EAC07551
:1003F0004FEA0752001B61EB0201001C41F580111E
:1004000049084FEA30000019514132462B4603B0EB
:10041000BDE8F04F00F00EBA009801224000002322
:10042000D0EB020263EBE073009821464FEAE074E0
:10043000B8EB000061EB0401E9E783F000435BE700
:1004400081F0004158E72DE9FE4F81EA030404F0F2
:10045000004421F0004100944FF0000B23F00043D2
:1004600050EA01045ED052EA03045BD0C3F30A549D
:10047000C1F30A552C44A4F2F3340194A0FB0254B6
:10048000C1F3130141F48011C3F3130343F4801348
:1004900001FB024400FB034E840A970A44EA81549C
:1004A00047EA8357A4FB076802958D0A05FB078579
:1004B0004FEA932C04FB0C542705029D4FEA065883
:1004C00047EA1637B5EB08056EEB070C870E920E60
:1004D00047EA811742EA8312A7FB0201B6EB0B0140
:1004E00064EB00042B0D43EA0C335E1844EB1C5004
:1004F000DA465146E7FB0201C5F313044FEA0B331A
:1005000043EA14534FEA0432019C43EA0603A4F180
:100510000C040294009CCDE900B400F09AF903B0F9
:10052000BDE8F08F00200146F9E72DE9F04D81EAA2
:10053000030404F0004B21F0004514464FF0000A7C
:1005400023F0004150EA050220D054EA01021DD0F8
:10055000C5F30A570246C5F31303C1F31300C1F3F1
:100560000A5640F4801543F48013A7EB0608101BCD
:10057000D64608F2FD3873EB050002D308F10108F6
:1005800001E092185B41B8F1000F03DA0020014648
:10059000BDE8F08D00204FF48011064684460EE041
:1005A000171B73EB050705D3121B63EB050306430B
:1005B0004CEA010C49084FEA300092185B4150EABE
:1005C0000107EDD152EA030012D082EA040083EA67
:1005D0000501084305D0101BAB4106D201220023C0
:1005E00006E000224FF0004302E06FF001025310DA
:1005F0001AEB06004CEB085110EB0A0041EB0B0123
:10060000BDE8F04D00F016B9C10F80EAE070084473
:10061000CA079623002100F0DFB896230022114676
:1006200000F0DAB80EB540F2334102910021CDE975
:1006300000110A460B4600F00CF903B000BD00F0B3
:10064000004220F00040C10DC0F3160040F400004D
:100650007F2901DA00207047962903DCC1F1960159
:10066000C84001E096398840002AF4D040427047E3
:1006700020F00040C10DC0F3160040F400007F29B7
:1006800001DA00207047962903DCC1F19601C840C9
:10069000704796398840704700F0004230F00040C3
:1006A0000AD0C10D01F56071C0F3160042EA015194
:1006B000C20840071143704700200146704701F00F
:1006C000004330B421F0004150EA010206D00A0D87
:1006D000A2F56072C1F31301002A02DC30BC0020D5
:1006E0007047440F44EAC104C100E01830BC00EB7D
:1006F000C25000F068B830B50B46014600202022F9
:10070000012409E021FA02F59D4205D303FA02F51E
:10071000491B04FA02F52844151EA2F10102F1DC7E
:1007200030BD2DE9F05F0546002092469B46884685
:100730000646814640241BE028464146474622465D
:1007400000F018F953465A46C01A914110D3114689
:100750001846224600F016F82D1A67EB01084F469E
:1007600022460120002100F00DF817EB00094E4150
:10077000201EA4F10104DFDC484631462A464346E8
:10078000BDE8F09F202A04DB203A00FA02F10020A5
:1007900070479140C2F1200320FA03F319439040BF
:1007A0007047202A06DBCB17203A41FA02F043EAD1
:1007B000E07306E041FA02F3D040C2F1200291401A
:1007C0000843194670470029A8BF7047401C4900DC
:1007D00008BF20F00100704710B4B0FA80FC00FAA6
:1007E0000CF050EA010404BF10BC704749B1CCF1D1
:1007F000200421FA04F411FA0CF118BF012121435D
:100800000843A3EB0C01CB1D4FEA00614FEA102017
:1008100042BF002010BC704700EBC35010440029B9
:10082000A4BF10BC7047401C490008BF20F0010065
:1008300010BC704710B5141E73F1000408DA401C98
:1008400041F1000192185B411A4301D120F00100EF
:1008500010BD2DE9F04D92469B4611B1B1FA81F2DF
:1008600002E0B0FA80F220329046FFF78BFF044698
:100870000F4640EA0A0041EA0B0153465A46084334
:1008800013D0114653EA010019D0C8F14002504676
:1008900000F070F805460E46504659464246FFF7AE
:1008A00071FF084305D0012004E020463946BDE829
:1008B000F08D0020054346EAE0762C4337430A9842
:1008C0006305E40AA0EB08000022FD0A44EA47544D
:1008D0000A3002D500200146E9E7010510196941F7
:1008E000DDE9084500196941BDE8F04DA2E7C1F313
:1008F0000A52C1F3130140F2FF3341F480119A42CE
:1009000002DA00200146704740F233439A42A2F2D5
:10091000334202DC524200F02DB8FFF733BF000033
:1009200030B5041E71F1000404DB4FF00044404276
:1009300064EB0101141E73F1000405DB1C464FF04B
:100940000043524263EB0403994208BF904230BD1A
:10095000064C074D06E0E06840F0010394E807000C
:1009600098471034AC42F6D3FFF7E6FBD8290008CD
:10097000F8290008202A04DB203A21FA02F000219D
:10098000704721FA02F3D040C2F12002914008439F
:100990001946704700BFFEE72DE9F041044667485D
:1009A00001780078401C654A10706548445400780E
:1009B000532804D0002011460870BDE8F0815F483C
:1009C0000078042800DAF8E7452C7CD101F0C2FF5A
:1009D0005B484078412802D043287CD107E0584842
:1009E000807830385749087001F070FDA0E0544815
:1009F0008078302850D031281CD0322833D0342889
:100A000066D151480068FFF747FE054600224F4B6C
:100A1000FFF772FC0746FFF752FE4B490860084695
:100A20000068FFF739FE05462A460B4648A001F04C
:100A30005BF84EE044480068FFF72EFE05460022B2
:100A4000424BFFF7FAFC0746FFF739FE3E490860C4
:100A500008460068FFF720FE05462A460B463CA0E4
:100A600001F042F835E03D480068FFF715FE054605
:100A70003B4A3C4BFFF7E1FC0746FFF720FE3749B6
:100A8000086008460068FFF707FE05462A460B4641
:100A900035A001F029F81CE030480068FFF7FCFDA4
:100AA00005462F4A2F4BFFF727FC0746FFF707FEA7
:100AB0002A49086008460068FFF7EEFD05462A4609
:100AC0000B4629A001E037E005E001F00DF800E059
:100AD00000BF00BF2CE01A488078312806D03228A9
:100AE0000BD0332810D034281CD114E05A202149CF
:100AF0000870012001F0A0FC18E00E201D490870CC
:100B0000012001F099FC11E046201A4908700120EB
:100B100001F092FC0AE06E2016490870012001F0F5
:100B20008BFC03E0032001F087FC00BF00BF00BF87
:100B300000BF00200149087000BF3EE717000020F9
:100B4000B801002029000020A40000200000E03FA0
:100B50004B50313A2025660D0A000000A800002005
:100B60009A9999999999B93F4B49313A2025660D3F
:100B70000A000000160000203A490A780978491C4A
:100B8000384B1970384988540978552903D0002109
:100B90001A4611707047334909780B2900DAF9E7D2
:100BA0003149497850390A2956D2DFE801F0050D5C
:100BB000151D252D353D454D2C492B4A921C13689A
:100BC0000B6052684A6047E02949274A921C136823
:100BD0000B6052684A603FE02649234A921C136822
:100BE0000B6052684A6037E023491F4A921C136821
:100BF0000B6052684A602FE020491B4A921C136820
:100C00000B6052684A6027E01D49174A921C13681E
:100C10000B6052684A601FE01A49134A921C13681D
:100C20000B6052684A6017E017490F4A921C13681C
:100C30000B6052684A600FE014490B4A921C13681B
:100C40000B6052684A6007E01149074A921C13681A
:100C50000B6052684A6000BF00BF0021014A11705A
:100C600000BF97E718000020B20200202C000020EF
:100C7000340000203C000020440000204C000020F4
:100C8000540000205C000020640000206C00002064
:100C9000740000207047000030B5044604254FF46E
:100CA000302000F06FF80546042D17D10C4800697C
:100CB00040F002000A49086108464461006940F0BA
:100CC000400008614FF4302000F05CF8054604480D
:100CD000006941F6FD71084001490861284630BDB0
:100CE0000020024004200B49C96801F0010109B14C
:100CF00001200EE00749C96801F0040109B1022092
:100D000007E00449C96801F0100109B1032000E0BF
:100D100004207047002002400348006940F0800032
:100D200001490861704700000020024070B5044688
:100D30000D460426F00200F025F80646042E11D1D7
:100D40000948006940F00100074908612580F00268
:100D500000F018F806460448006941F6FE710840A4
:100D600001490861304670BD002002400248034935
:100D700048600348486070472301674500200240EF
:100D8000AB89EFCD00B502460423FFF7ABFF034666
:100D900003E0FFF7A7FF0346521E012B01D1002AF3
:100DA000F7D102B90523184600BD2DE9F0410246EE
:100DB00000250026002000230024002791F803C00E
:100DC0000CF00F0591F803C00CF0100CBCF1000FF3
:100DD00003D091F802C04CEA050591F800C0BCF1BF
:100DE000000F31D0146800202BE04FF0010C0CFAFA
:100DF00000F3B1F800C00CEA03069E4220D1830044
:100E00004FF00F0C0CFA03F7BC4305FA03FC4CEA55
:100E1000040491F803C0BCF1280F06D14FF0010C77
:100E20000CFA00FCC2F814C00AE091F803C0BCF14F
:100E3000480F05D14FF0010C0CFA00FCC2F810C0AD
:100E4000401C0828D1D31460B1F800C0BCF1FF0FDA
:100E500034DD546800202EE000F1080C4FF001084A
:100E600008FA0CF3B1F800C00CEA03069E4221D147
:100E700083004FF00F0C0CFA03F7BC4305FA03FC98
:100E80004CEA040491F803C0BCF1280F05D100F12D
:100E9000080C08FA0CF8C2F8148091F803C0BCF1F1
:100EA000480F07D100F1080C4FF0010808FA0CF8C0
:100EB000C2F81080401C0828CED35460BDE8F081F1
:100EC000416170470161704700BFFEE708B501212D
:100ED000102000F09FF84FF40050ADF800001020F3
:100EE0008DF8030003208DF8020069460448FFF7DF
:100EF0005CFF4FF400510248FFF7E4FF08BD00001B
:100F00000010014000BFFEE77047000070B50021EF
:100F100000230F22C47804B3154C246804F4E06461
:100F2000C4F5E064210AC1F10403CA40447804FA1C
:100F300003F184781440214309010E4C0678A15531
:100F4000047804F01F050124AC4005786D11AD0054
:100F500005F1E025C5F8004109E0047804F01F051B
:100F60000124AC40044D0678761145F8264070BD4A
:100F70000CED00E000E400E080E100E00249014304
:100F8000024A1160704700000000FA050CED00E015
:100F9000FEB504462046FFF745FB114AC2E90201AF
:100FA000104801681048FFF731F90646FFF774FB57
:100FB0000B4A03C20A480D490290D1E90401CDE968
:100FC00000010A480FC801F0FDFB0549886AFFF7D8
:100FD00036FB05B26119C8B201F0F0F9FEBD0000A0
:100FE000C8030020A00000200000B442B00300208D
:100FF0007047000029B1064AD2690243044BDA6106
:1010000004E0034AD2698243014BDA617047000071
:101010000010024029B1064A92690243044B9A61CA
:1010200004E0034A92698243014B9A6170470000D1
:101030000010024030B500210022002400232D4D75
:101040006D6805F00C0121B1042905D0082923D1D0
:1010500005E0294D056022E0274D05601FE0254D84
:101060006D6805F47012234D6D6805F48034022517
:1010700005EB92421CB9214D554305600BE01D4D17
:101080006D6805F400351DB11C4D5543056002E047
:10109000194D5543056002E0174D056000BF00BFC4
:1010A000144D6D6805F0F0010909154D6B5C05687C
:1010B000DD4045600F4D6D6805F4E061090A104D93
:1010C0006B5C4568DD4085600A4D6D6805F46051D4
:1010D000C90A0B4D6B5C4568DD40C560054D6D6808
:1010E00005F44041890B074D6B5CC568B5FBF3F512
:1010F000056130BD0010024000127A0000093D0079
:10110000000000201000002030B503460C461546B4
:10111000002207E0184600F008F824F812009B1C93
:10112000501C82B2AA42F5DB30BD014608887047E8
:101130002DE9F05F80468A461746B8F1006F02D36A
:101140003348804501D3BDE8F09FFFF70FFEA8F1BB
:10115000006B4FEA9B25CBF34809C9F50074A74201
:1011600000DC3C464DE04FF0006101EB85208A1425
:101170002849FFF7C9FF00260BE009EB06002549C7
:1011800031F810004FF6FF71884200D003E0701C68
:1011900086B2A642F1DB00BFA6421BDA4FF0006127
:1011A00001EB8520FFF778FD002608E03AF81600ED
:1011B00006EB0901174A22F81100701C86B2A642FC
:1011C000F4DB4FF0006101EB85208A14114900F037
:1011D00023F804E022465146404600F01DF8A7429D
:1011E00000D10FE06D1C4FF000090AEB440AA04447
:1011F000381B87B2B7F5007F02DD4FF4007400E0C2
:101200003C46B0E700BFFFF787FD00BF9BE700004B
:1012100000000208F80300202DE9F04105460E46C3
:101220001746002407E036F814102846FFF77EFD25
:10123000AD1C601C84B2BC42F5DBBDE8F081704798
:1012400010B500F001F810BD0CB500200190009021
:101250003348006840F480303149086000BF3048AE
:10126000006800F4003000900198401C0190009844
:1012700018B90198B0F5A06FF1D12948006800F4C1
:10128000003010B10120009001E000200090009893
:10129000012843D12348006840F01000214908602C
:1012A0000846006820F0030008600846006840F027
:1012B000020008601A4840681949486008464068BA
:1012C00048600846406840F48060486008464068CE
:1012D00020F47C1048600846406840F4E8104860FC
:1012E0000846006840F08070086000BF0C48006845
:1012F00000F000700028F9D00948406820F0030091
:10130000074948600846406840F00200486000BF56
:101310000348406800F00C000828F9D10CBD00001B
:101320000010024000200240042808D14FF0E021C4
:10133000096941F004014FF0E022116107E04FF02C
:10134000E021096921F004014FF0E02211617047AA
:101350007047000010B504466FF00400FFF7E4FF8B
:10136000E11704EB5171C1F3C701074A1170104630
:10137000007800EB4001C1EBC0104FF6FF7101EAAD
:10138000C0000249088010BDB0000020B20000205B
:1013900010B51348006840F0010011490860084684
:1013A0004068104908400E494860084600680E49E8
:1013B00008400B4908600846006820F48020086057
:1013C0000846406820F4FE0048604FF41F00886023
:1013D000FFF736FF4FF000600449086010BD0000C1
:1013E000001002400000FFF8FFFFF6FE08ED00E0ED
:1013F000704700000EB501212C4800F0D0F80028FD
:101400004FD02B48007830BB0021284800F0BBF8B3
:1014100028480088ADF8040027480088ADF800008F
:101420000020ADF80600ADF8020069461F4800F044
:10143000D1F801211D4800F0A6F84FF480511F4853
:10144000FFF740FD4FF400511C48FFF73BFD012022
:101450001749087025E00021144800F094F8184856
:101460000088ADF8040014480088ADF800000020A2
:10147000ADF80600ADF8020069460C4800F0AAF885
:1014800001210A4800F07FF84FF480510B48FFF724
:1014900017FD4FF400510948FFF712FD00200449E1
:1014A00008700121014800F06BF80EBD00040040F7
:1014B000280000202200002026000020000C01400F
:1014C000240000200EB50121274800F068F800280C
:1014D00045D02648007808BB0021234800F053F887
:1014E00023480088ADF8040022480088ADF80000C9
:1014F0000020ADF80600ADF8020069461A4800F079
:1015000069F80121184800F03EF84FF400611A48CC
:10151000FFF7D8FC01201549087020E0002112488F
:1015200000F031F815480088ADF804001148008833
:10153000ADF800000020ADF80600ADF802006946E5
:10154000094800F047F80121074800F01CF84FF463
:1015500000610948FFF7B4FC00200449087001212C
:10156000014800F00DF80EBD0008004020000020EA
:101570001A0000201E000020000C01401C0000206A
:10158000CA430282704721B1028842F00102028000
:1015900004E002884FF6FE731A400280704730B5AF
:1015A0000246002000230024158A05EA01039589DC
:1015B00005EA010413B10CB1012000E0002030BDA8
:1015C0001AB183890B43838102E083898B43838132
:1015D00070470000002202881D4B98420ED01D4B20
:1015E00098420BD0B0F1804F08D01B4B984205D0E9
:1015F0001A4B984202D01A4B984204D14FF68F737F
:101600001A404B881A43174B984207D0164B984202
:1016100004D04FF6FF431A40CB881A4302808B88D0
:1016200083850B8803850A4B98420BD0094B98425F
:1016300008D00E4B984205D00D4B984202D00D4B6E
:10164000984201D10B7A0386012383827047000000
:10165000002C01400034014000040040000800401C
:10166000000C004000100040001400400040014009
:10167000004401400048014010B504460748017885
:101680000078401C054A107005484454012240F27D
:101690002771044800F08BF910BD000015000020F0
:1016A000B80000200044004010B5044603E0207854
:1016B000FFF7E2FF641C20780028F8D110BD00007D
:1016C00010B540F225510B4800F047F958B10948D0
:1016D00000F0FEF9C4B22046FFF75EF940F2255152
:1016E000044800F012F94FF45871034800F00DF966
:1016F00010BD0000003801400044004010B586B025
:10170000044601210420FFF785FC01218803FFF72F
:1017100081FC01210846FFF77DFC4FF40070ADF815
:10172000140003208DF8160018208DF8170005A965
:101730001E48FFF73AFB4FF48060ADF81400042018
:101740008DF8170005A91948FFF72FFB0194002019
:10175000ADF80800ADF80A00ADF80C00ADF81000C7
:101760000C20ADF80E0001A9114800F045F9012147
:101770000F4800F0D9F840210D4800F0BDF80122D3
:1017800040F225510A4800F012F925208DF800009A
:1017900003208DF801008DF8020001208DF8030070
:1017A0006846FFF7B3FB06B010BD0000000801401B
:1017B0000038014010B540F227711E4800F0CDF806
:1017C00008B31D4802780078401C1B4B18701B485A
:1017D000815C184800F081F940F22771154800F04B
:1017E00094F8154800781649097888421CD10020E1
:1017F0001149087012490870002240F227710D4803
:1018000000F0D5F810E040F225510A4800F0A5F8A4
:1018100050B10849091D0988C8B2FFF7ADF940F277
:101820002551044800F071F84FF45871014800F058
:101830006CF810BD0044004014000020B8000020E7
:101840001500002010B586B0044601210420FFF7E2
:10185000E1FB01214804FFF7CDFB01210846FFF71A
:10186000D9FB0420ADF8140003208DF816001820D1
:101870008DF8170005A91E48FFF797FA0820ADF864
:10188000140004208DF8170005A91948FFF78DFAF8
:1018900001940020ADF80800ADF80A00ADF80C0086
:1018A000ADF810000C20ADF80E0001A9114800F0B1
:1018B000A3F801210F4800F037F840210D4800F04F
:1018C0001BF8012240F225510A4800F070F826204A
:1018D0008DF8000003208DF8010002208DF8020031
:1018E00001208DF803006846FFF710FB06B010BD1D
:1018F000000801400044004001F40072B2F5007F8E
:1019000000D100BFCA430280704710B500220023F7
:1019100040F66A14A14200D100BF0A12012494408B
:10192000A3B2DC43048010BD21B1828942F400528D
:10193000828104E082894DF6FF731A4082817047EC
:1019400002460020B1F5007F00D100BF13880B4094
:101950000BB1012000E00020704770B50246002462
:1019600000230025002040F66A16B14200D100BFD6
:10197000C1F3421501F01F03012606FA03F3012DFE
:1019800002D19689334006E0022D02D1168A3340F7
:1019900001E0968A33400C12012606FA04F41688F8
:1019A000344013B10CB1012000E0002070BDF0B54F
:1019B0000346002400260025002040F66A17B9429D
:1019C00000D100BF1846C1F3421401F01F060127E1
:1019D00007FA06F5012C01D10C3004E0022C01D1EC
:1019E000103000E014301AB107682F43076002E09E
:1019F0000768AF430760F0BD2DE9F04786B00546A4
:101A00000E460024A24600BFA1460027B08900B1BF
:101A100000BF2F462C8A4CF6FF700440F088044328
:101A20002C82AC894EF6F3100440B088318908430B
:101A3000718908430443AC81AC8A4FF6FF400440EF
:101A4000B0890443AC8201A8FFF7F4FA1F4887422B
:101A500002D1DDF810A001E0DDF80CA0A88900F4A7
:101A6000004040B10AEBCA0000EB0A10316849009F
:101A7000B0FBF1F807E00AEBCA0000EB0A1031688E
:101A80008900B0FBF1F86420B8FBF0F004012009F4
:101A9000642101FB1089A88900F4004040B1322084
:101AA00000EBC900B0FBF1F000F00700044308E0D0
:101AB000322000EB09106421B0FBF1F000F00F00C0
:101AC00004432C8106B0BDE8F087000000380140D7
:101AD00001468888C0F308007047C1F3080282807D
:101AE000704700BFFEE700000FB4054B10B503A917
:101AF000044A029800F0CAF810BC5DF814FB00001C
:101B0000AD250008B400002002E008C8121F08C17B
:101B1000002AFAD170477047002001E001C1121F6E
:101B2000002AFBD1704700002DE9FF5FDDE90220AC
:101B3000010DDDF838B0024318D044F61050A1F280
:101B4000FF3141430D140F98012820D0A5EB0B0065
:101B5000401C5FEA000A4FF00004474EDFF81C917A
:101B6000A046504616D5CAF1000728E00F98012478
:101B700043A2012808D0002100980F9BC0E9002152
:101B8000C0E90243BDE8FF9F6FEA0B01F4E7CBF128
:101B90000000DEE7074612E0F80707D0224633468A
:101BA00040464946FEF74FFC80468946224633466A
:101BB00010461946FEF747FC04460E467F10002FDC
:101BC000EAD1DDE90201BAF1000F42464B4602DAE2
:101BD000FEF739FC01E0FEF7A8FC04460E460022A1
:101BE000284BFEF79DFE03D84FF0FF30014607E07B
:101BF0000022254B20463146FEF77EFBFEF777FE9E
:101C0000102409E0002C0ADB0A220023FEF789FDDC
:101C1000019B30321A55641E50EA0102F2D1641C55
:101C2000019AC4F1110314440F9A012A03D001222E
:101C300008430DD10AE0084304D000204FF0110BF7
:101C40000F9080E7A3EB0B056D1E0DE05B4504DDF7
:101C50004FF0000205F1010504E003DA4FF0000245
:101C6000A5F10105002AECD000980F99C0E90231D6
:101C7000C0E9004586E70000000024400000F03F76
:101C8000300000000000F0430000E03F2DE9FF4F6E
:101C900095B09B468946064600250FE2252877D158
:101CA00000242746F84A0121059400E0044316F871
:101CB000013F203B01FA03F01042F7D130782A2887
:101CC00011D06FF02F033078A0F13002092A16D816
:101CD000059A44F0020402EB820203EB4202104434
:101CE000761C0590EFE759F8042B0592002A03DAD9
:101CF000504244F40054059044F00204761C3078BD
:101D00002E2816D116F8010F44F004042A280DD00D
:101D10006FF02F023078A0F13003092B09D807EBC0
:101D2000870302EB4303C718761CF3E759F8047BDB
:101D3000761C30786C280FD006DC4C2817D0682829
:101D40000DD06A2814D104E0742810D07A280FD15D
:101D50000DE044F400140AE044F4801401E044F47B
:101D600040147278824202D104F58014761C761CED
:101D7000307866280BD013DC582877D009DC00288F
:101D800075D04528F6D04628F4D047281AD19DE1D1
:101D900018E0632835D0642879D0652812D195E100
:101DA000702873D008DC6728F1D069286FD06E28BE
:101DB0000DD06F2806D1B5E073282CD0752875D0CA
:101DC000782874D05A46179990476D1C75E1C4F372
:101DD0000250022809D003280DD0D9F80010042899
:101DE0000DD00D6009F1040967E1D9F80010EA1778
:101DF000C1E90052F6E7D9F800100D80F2E70D7046
:101E0000F0E719F8041B8DF8001000208DF8010090
:101E1000EA46012003E059F804AB4FF0FF306107B8
:101E20004FF0000102D40DE008F101018846B942EB
:101E30000FDA8045F8DB1AF808100029F4D108E021
:101E400008F1010188468142FADB1AF808100029DE
:101E5000F6D105985B46A0EB080721463846179A4D
:101E600000F094FA284400EB080507E04DE029E172
:101E70000DE01AF8010B5A4617999047B8F101087E
:101E8000F7D25B4621463846179A13E142E00A2210
:101E90000092C4F302524FF0000A022A08D059F807
:101EA00004CB032A4FEAEC710AD00DE029E02AE0C6
:101EB00009F1070121F00702F2E802C1914609E0A9
:101EC0000FFA8CFC4FEAEC71042A03D14FFA8CFC18
:101ED0004FEAEC71002907DA0A460021DCF1000C18
:101EE00061EB02012D2202E0220504D52B228DF8A0
:101EF0000420012203E0E20701D02022F7E7904608
:101F000059E00A2102E010220DE010214FF0000AF2
:101F100000910BE010224FF0000A44F0040408275F
:101F2000009203E008224FF0000A0092C4F302522C
:101F3000022A05D059F804CB0021032A08D009E071
:101F400009F1070121F00702F2E802C1914605E01C
:101F50001FFA8CFC042A01D10CF0FF0C4FF0000892
:101F6000220728D5702806D0009B83F0100353EA7F
:101F70000A0305D00EE040228DF80420012208E07B
:101F80005CEA010206D030228DF804208DF80500AD
:101F900002229046009B83F0080353EA0A030AD109
:101FA0005CEA010201D1620705D530228DF80420D8
:101FB0004FF001087F1E582804D034A003900EA8CB
:101FC00002900DE036A0F9E753466046009AFEF70E
:101FD000A8FB84460398825C0298401E029002701F
:101FE0005CEA0100F0D1029806A9081A00F1200A63
:101FF000600702D524F4803400E00127574502DD54
:10200000A7EB0A0000E0002000EB0A010090059811
:102010004144401A0590E00306D45B462146179AD6
:10202000059800F0B3F90544002706E001A85A46D8
:10203000C05D179990476D1C7F1C4745F6DBE00398
:102040000CD55B462146179A059800F09FF9054488
:1020500004E030205A46179990476D1C0099481E9D
:1020600000900029F5DC08E0029802995A460078B1
:10207000491C0291179990476D1CBAF10001AAF111
:10208000010AF1DC65E1000009280100303132333A
:1020900034353637383961626364656600000000A4
:1020A000303132333435363738394142434445468E
:1020B0000000000000F058F90544761C3078002834
:1020C0007FF4ECAD19B02846BDE8F08F620700D46C
:1020D000062709F1070222F0070CFCE80223E1467B
:1020E00003F000485FEA080C02D00FF2702C0DE0FC
:1020F0005FEA045C02D50FF2682C07E05FEAC47C5B
:1021000002D00FF2602C01E0AFF2700C4FF0FF38FC
:1021100023F00043CDF850C065280CD006DC4528DC
:1021200009D046281DD047283DD13DE0662818D06B
:1021300067287ED138E00021112F01DB112000E05B
:10214000781CCDE9000106A90EA8FFF7EDFCDDE93A
:102150000F010E9A03910021009207F1010A0491E8
:102160004DE04FF000400097CDE9011006A90EA800
:10217000FFF7DAFCDDE90F0203920E9B11990022B2
:10218000DDF80CA00093049211B9791C00EB010A50
:10219000B7EB0A0004D4C0F1FF3007F1010A049044
:1021A000AAEB0700019044E0012F00DA012700218B
:1021B000112F01DD112000E03846CDE9000106A90C
:1021C0000EA8FFF7B1FCDDE90F010E9A0391002183
:1021D00004910092BA4621070CD40399514500DAC4
:1021E0008A46BAF1010F05DD009AAAF10101515C9E
:1021F000302908D0B84202DA10F1040F06DA0121C2
:10220000CDE9011015E0AAF10101E9E7002805DC9C
:10221000049901440491AAEB000102E0411C5145DC
:1022200000DD8A460499401A401C01904FF000409E
:102230000290200704D40198504501DBCDF80480BA
:1022400000208DF84F0002980DF14F07B0F1004FBC
:1022500025D02B200E9002984FF0020800280CDAAF
:10226000404202902D200E9007E00A210298FEF7CE
:1022700042FA3031029007F8011DB8F10001A8F1CF
:102280000108F2DC02980028EFD1791E0E98087040
:10229000307800F0200040F0450007F8020D12A849
:1022A000C01B00F107081498007800B1012000EB72
:1022B0000A01019801EBE07105984144401A401E63
:1022C0000590E00306D45B462146179A059800F076
:1022D0005DF805441498007818B15A46179990474C
:1022E0006D1CE00324D55B462146179A059800F043
:1022F0004DF805441CE00498002807DBDDE90301E4
:10230000884203DD0098405C179901E0179930205E
:102310005A469047049805F10105401C0490019825
:10232000401E019004D12E205A46179990476D1CEB
:10233000BAF10001AAF1010ADDDC05E017F8010B92
:102340005A46179990476D1CB8F10001A8F1010891
:10235000F4DC5B462146179A0598ABE62D00000099
:102360002B000000200000002DE9F041044600256C
:102370001E461746880404D405E039462020B0479D
:102380006D1C641EF9D52846BDE8F0812DE9F041A9
:10239000044600251E469046C80301D5302700E0BC
:1023A0002027880404D505E041463846B0476D1C17
:1023B000641EF9D52846BDE8F08100002DE9F047FC
:1023C0000446692C01DD692402E04B2C00DA4B2421
:1023D0002320134908802046FEF71FF98246FEF7A6
:1023E0005BF9074600220F4BFEF79FF80546FEF704
:1023F00066F981460C494846FDF70EFF06460B4933
:10240000FDF7B2FE0546FEF733F909490880084694
:10241000008849F64041081A06490880BDE8F0875F
:102420001E000020000022400000484300007A44C3
:102430001A0000201C00002010B50446002C41D0DA
:10244000012C02D0022C28D113E080211E48FEF777
:1024500037FD4FF480711C48FEF734FD4FF4804186
:102460001948FEF72DFD4FF400411748FEF72AFDED
:1024700027E04FF480711448FEF722FD80211248B6
:10248000FEF720FD4FF400410F48FEF719FD4FF411
:1024900080410D48FEF716FD13E04FF480710A48A5
:1024A000FEF70EFD80210848FEF70AFD4FF40041BB
:1024B0000548FEF705FD4FF480410348FEF700FD97
:1024C00000BF00BF10BD0000000C014010B51B484C
:1024D0000078032802D005281CD10DE01848008898
:1024E000801C1749088017480088801E15490880FD
:1024F0000020124908700EE011480088801E104923
:10250000088010480088801C0E49088000200B4974
:10251000087000E000BF00BF012209490A48FEF729
:1025200007FE012207490848801CFEF701FE044807
:10253000018806A0FFF7D8FA10BD0000290000208E
:102540002200002024000020048801085350454543
:10255000442D687065723A2025640D0A0000000061
:102560000146114A12884A434FF0E0235A61002283
:102570009A611A46126942F001021A6100BF4FF0D7
:10258000E022106900F001021AB100F48032002A42
:10259000F5D04FF0E022126922F001024FF0E02363
:1025A0001A6100229A617047B200002070B504469B
:1025B0000D46E1B20548FFF790FA00BF80210348BD
:1025C000FFF7BEF90028F9D0204670BD0038014061
:1025D0004820FEF7BFFE4FF4A060FEF7CFFC00F0EE
:1025E00053F900F07DF800F0B5F9FEF76FFC4FF4F9
:1025F000E130FFF783F84FF41650FFF723F94FF45B
:102600007A70FFF7ADFF2948FFF74EF80A20FFF771
:10261000A7FF2748FFF748F86420FFF7A1FF2548E8
:10262000FFF742F86420FFF79BFF2348FFF73CF8D1
:102630006420FFF795FF38E0C820FFF791FF601C8A
:1026400084B2B4F5FA7F0CDD00241C48FFF72CF8A7
:102650006420FFF785FF1A48FFF726F86420FFF78C
:102660007FFF1849B1F90400FDF7CEFF06464FF091
:102670008E41FDF703FE05461349FDF7CDFD1349D5
:10268000086013480078FEF783FC052094FBF0F106
:1026900000FB114048B90D480068FDF7FDFF0546F5
:1026A0002A460B460BA0FFF71FFAC5E7980000204B
:1026B000860000208C000020920000207C0000207A
:1026C000810000204400002000003443A0000020CE
:1026D000160000205961773A20252E33660D0A0036
:1026E00000B585B001210820FEF794FC4FF2801060
:1026F000ADF8100010208DF8130003208DF81200A3
:1027000004A92848FEF751FB4FF280112548FEF737
:10271000D7FB00202449087048F69F4023490880D1
:10272000012223492348FEF7EFFC012222492148D8
:10273000801CFEF7E9FC00202049087001210220DE
:10274000FEF758FC1C480088ADF8080017480088C0
:10275000ADF804000020ADF80A00ADF8060001A9AC
:102760001748FEF737FF012211461548FEF728FFEC
:1027700001211348FEF704FF1D208DF80000022000
:102780008DF8010003208DF8020001208DF8030070
:102790006846FEF7BBFB01210948FEF7F4FE05B0D1
:1027A00000BD0000000C0140280000202600002091
:1027B00022000020048801082400002029000020B5
:1027C000000400400FB42DE9F0478CB0DDF86880BC
:1027D000D8E900934A46D8E902613046FDF72DFE5C
:1027E00004460D46D8E90663324620462946FDF7E1
:1027F00024FE8146D8E904633246FDF796FECDE912
:102800000A01D8E90463324620462946FDF71BFE3B
:102810008146D8E908633246FDF76EFDC8E9080134
:10282000DDE918613046DDE90A23FDF70CFECDE94C
:102830000601D8E908633246DDE916914846FDF7FE
:1028400002FECDE9020122462B46DDE91461304645
:10285000FDF7F9FDCDE90001DDE90223FDF74CFDAF
:10286000CDE90401DDE90623FDF746FDCDE90801C8
:10287000FDF725FFC8F82800C8E9064540460CB01A
:10288000BDE8F0075DF814FB00B585B00121082014
:10289000FEF7C0FB4FF40060ADF8100010208DF87B
:1028A000130003208DF8120004A92448FEF77DFAD6
:1028B0004FF400612148FEF703FB00202049087017
:1028C00023202049088040F6B8301F49088049F28B
:1028D00088001E49088001210420FEF78BFB1B485D
:1028E0000088ADF8080017480088ADF80400002003
:1028F000ADF80A00ADF8060001A91548FEF76AFE1A
:10290000012211461248FEF75BFE01211048FEF736
:1029100037FE1E208DF8000001208DF801000220F6
:102920008DF8020001208DF803006846FEF7EEFAEC
:1029300001210748FEF727FE05B000BD000C01404D
:10294000200000201E0000201A0000201C00002093
:102950000008004010B5174801681748FDF756FCFD
:102960000446FDF799FE154A03C200201449083AAF
:10297000C2E9020100211348C2E904109161D1614A
:10298000116251620020114688620F480068FDF70D
:1029900083FE0E4A03C20E480068FDF77DFE0B4A17
:1029A000C2E902010B480068FDF776FE074AC2E95A
:1029B000040110BDA00000200000B442C8030020A4
:1029C000008056400000F03FA4000020B00300202B
:1029D000A8000020AC000020F8290008000000201A
:1029E000B8000000081B0008B02A0008B80000204A
:1029F000400B0000181B0008000000000102030447
:102A000001020304060708090204060800005A0030
:102A100000000000000000000000000000000000B6
:102A200000000000000000000000000000000000A6
:102A30000000000000000000000000000000000096
:102A40000000000000000000000000000000000086
:102A50000000000000000000000000000000000076
:102A60000000000000000000000000000000000066
:102A700000000000FFAA010100FFAA000000FFAA59
:102A800024010000FFAA63000000FFAA0104000067
:102A9000FFAA6988B50000000000000000000000E7
:102AA0000000000000000000000000000000000026
:0400000508000131BD
:00000001FF
